:100000000C945D000C9485000C9485000C94850084
:100010000C9485000C9485000C9485000C9485004C
:100020000C9485000C9485000C9485000C9485003C
:100030000C9485000C9485000C9485000C9485002C
:100040000C94A8020C9485000C9418030C94F202F2
:100050000C9485000C9485000C9485000C9485000C
:100060000C9485000C9485000000000024002700FB
:100070002A0000000000250028002B0004040404CE
:100080000404040402020202020203030303030342
:10009000010204081020408001020408102001021F
:1000A00004081020000000080002010000030407FB
:1000B0000000000000000000910511241FBECFEFDA
:1000C000D8E0DEBFCDBF11E0A0E0B1E0EAE3FCE0A4
:1000D00002C005900D92AC31B107D9F721E0ACE137
:1000E000B1E001C01D92A83CB207E1F710E0CDE5F8
:1000F000D0E004C02197FE010E941506CC35D1073F
:10010000C9F70E944A030C941B060C94000090E06F
:10011000FC01EC55FF4F2491FC01E057FF4F349157
:10012000FC01E458FF4FE491EE23C9F0222339F09B
:10013000233001F1A8F4213019F1223029F1F0E047
:10014000EE0FFF1FEE58FF4FA591B4918FB7F894B3
:10015000EC91611126C030953E233C938FBF0895EA
:100160002730A9F02830C9F0243049F78091800069
:100170008F7D03C0809180008F7780938000DFCFD8
:1001800084B58F7784BDDBCF84B58F7DFBCF809125
:10019000B0008F778093B000D2CF8091B0008F7D78
:1001A000F9CF3E2BDACFCF93DF9390E0FC01E057FD
:1001B000FF4F249184589F4FFC0184918823D1F0F4
:1001C00090E0880F991FFC01E859FF4FA591B49169
:1001D000FC01EE58FF4FC591D49161110EC09FB73D
:1001E000F8948C91E22FE0958E238C932881E22362
:1001F000E8839FBFDF91CF9108958FB7F894EC917A
:10020000E22BEC938FBFF6CF3FB7F8948091270194
:1002100090912801A0912901B0912A0126B5A89BAF
:1002200005C02F3F19F00196A11DB11D3FBFBA2F88
:10023000A92F982F8827BC01CD01620F711D811D48
:10024000911D42E0660F771F881F991F4A95D1F7CD
:100250000895AF92BF92CF92DF92EF92FF920F93E9
:100260001F93CF93DF936C017B018B01040F151F4C
:10027000EB015E01AE18BF08C017D10759F06991B4
:10028000D601ED91FC910190F081E02DC601099518
:10029000892B79F7C501DF91CF911F910F91FF90C5
:1002A000EF90DF90CF90BF90AF900895FC01538DF9
:1002B000448D252F30E0842F90E0821B930B541740
:1002C00010F0CF96089501970895FC01918D828DCD
:1002D000981761F0A28DAE0FBF2FB11D5D968C9166
:1002E000928D9F5F9F73928F90E008958FEF9FEFA5
:1002F0000895FC01918D828D981731F0828DE80F61
:10030000F11D858D90E008958FEF9FEF0895FC011A
:10031000918D228D892F90E0805C9F4F821B9109E7
:100320008F73992708958BE291E00E94870121E065
:10033000892B09F420E0822F089580E090E0892B3A
:1003400029F00E94930181110C9400000895FC0192
:10035000A48DA80FB92FB11DA35ABF4F2C91848D26
:1003600090E001968F739927848FA689B7892C9383
:10037000A089B1898C91837080648C93938D848DD6
:10038000981306C00288F389E02D80818F7D8083D9
:100390000895EF92FF920F931F93CF93DF93EC0199
:1003A00081E0888F9B8D8C8D98131AC0E889F9891C
:1003B000808185FF15C09FB7F894EE89FF8960831F
:1003C000E889F98980818370806480839FBF81E0A0
:1003D00090E0DF91CF911F910F91FF90EF900895E2
:1003E000F62E0B8D10E00F5F1F4F0F731127E02EBD
:1003F0008C8D8E110CC00FB607FCFACFE889F989F5
:10040000808185FFF5CFCE010E94A701F1CFEB8D52
:10041000EC0FFD2FF11DE35AFF4FF0829FB7F894C8
:100420000B8FEA89FB8980818062CFCFCF93DF93E6
:10043000EC01888D8823B9F0AA89BB89E889F989FC
:100440008C9185FD03C0808186FD0DC00FB607FC31
:10045000F7CF8C9185FFF2CF808185FFEDCFCE0164
:100460000E94A701E9CFDF91CF910895FC0101908F
:100470000020E9F73197AF01481B590BBC018BE213
:1004800091E00C9429018F929F92AF92BF920F93AB
:100490001F93CF93DF93CDB7DEB7A1970FB6F89434
:1004A000DEBF0FBECDBF19A2423008F44AE08E0174
:1004B0000F5D1F4F842E912CB12CA12CA50194010E
:1004C0000E94DD05E62FB901CA01EA30F4F4E05DCF
:1004D000D801EE938D01232B242B252B79F790E067
:1004E00080E0109719F0CD010E943602A1960FB658
:1004F000F894DEBF0FBECDBFDF91CF911F910F915A
:10050000BF90AF909F908F900895E95CE1CFCF921C
:10051000DF92EF92FF92CF93DF936B017C016DE24C
:100520008BE291E00E94C901EC0166277727CB019D
:100530006C197D098E099F094AE00E9443028C0FC5
:100540009D1FDF91CF91FF90EF90DF90CF900895A6
:100550001F920F920FB60F9211242F933F938F93F8
:100560009F93AF93BF938091230190912401A09119
:100570002501B09126013091220123E0230F2D3770
:1005800058F50196A11DB11D2093220180932301EE
:1005900090932401A0932501B09326018091270117
:1005A00090912801A0912901B0912A010196A11DE5
:1005B000B11D8093270190932801A0932901B09346
:1005C0002A01BF91AF919F918F913F912F910F90F1
:1005D0000FBE0F901F90189526E8230F0296A11DBD
:1005E000B11DD2CF1F920F920FB60F9211242F93ED
:1005F0003F934F935F936F937F938F939F93AF93AB
:10060000BF93EF93FF938BE291E00E94A701FF91CC
:10061000EF91BF91AF919F918F917F916F915F917A
:100620004F913F912F910F900FBE0F901F901895F3
:100630001F920F920FB60F9211242F938F939F93B7
:10064000EF93FF93E0913B01F0913C018081E091B9
:100650004101F091420182FD1BC0908180914401D3
:100660008F5F8F7320914501821741F0E091440123
:10067000F0E0E55DFE4F958F80934401FF91EF918F
:100680009F918F912F910F900FBE0F901F901895F3
:100690008081F4CFCF93DF9300D000D0CDB7DEB709
:1006A000789484B5826084BD84B5816084BD85B54D
:1006B000826085BD85B5816085BD80916E00816059
:1006C00080936E00109281008091810082608093FF
:1006D0008100809181008160809381008091800001
:1006E0008160809380008091B10084608093B1002C
:1006F0008091B00081608093B00080917A00846026
:1007000080937A0080917A00826080937A00809151
:100710007A00816080937A0080917A00806880936B
:100720007A001092C100E0913B01F0913C0182E01F
:100730008083E0913701F09138011082E091390116
:10074000F0913A018FEC808310924301E0913F01D8
:10075000F091400186E08083E0913D01F0913E01FF
:10076000808180618083E0913D01F0913E01808134
:1007700088608083E0913D01F0913E018081806836
:100780008083E0913D01F0913E0180818F7D8083E7
:1007900061E089E00E94D30061E083E00E94D30021
:1007A00061E08AE00E94D30061E085E00E94D3000E
:1007B00061E08BE00E94D30061E086E00E94D300FC
:1007C00060E08EE00E94D3000E9404016B017C0176
:1007D00048EE442E43E0542E612C712C0E940401FB
:1007E0006C197D098E099F09683E7340810591054A
:1007F000A8F301E0401A51086108710818EEC10E13
:1008000013E0D11EE11CF11C411451046104710478
:1008100029F70E94040160931C0170931D018093CD
:100820001E0190931F0180E4F82E412C94E0592E74
:10083000612C712C20E0C22E20E0D22E3EE9232E26
:1008400037E0332E80910201909103018F39974058
:100850000CF46BC010922101109220013092030120
:100860002092020160E089E00E94870060E083E05E
:100870000E94870060E08AE00E94870060E086E0D6
:100880000E94870060E085E00E94870060E08BE0C6
:100890000E9487008091200190912101019709F029
:1008A00091C00E94040100911C0110911D01209132
:1008B0001E0130911F0109831A832B833C83809092
:1008C000020190900301092C000CAA08BB08AB019F
:1008D000BC01401B510B620B730B481559056A058F
:1008E0007B0508F46FC0D901C801880D991DAA1DA8
:1008F000BB1D80931C0190931D01A0931E01B0931A
:100900001F0100910001109101010330110509F44C
:10091000BBC094F401301105B9F10230110509F49E
:100920009CC0063011054CF547C041E050E05093A3
:10093000210140932001AECF0530110509F4D2C04A
:100940000CF4B9C00630110561F760E089E00E943F
:10095000870060E08AE00E94870060E085E00E94F6
:10096000870060E086E00E94870061E08BE00E94E3
:10097000870061E083E00E94870021E030E030934F
:100980000101209300011EC060E089E00E94870001
:1009900060E083E00E94870060E08AE00E948700B8
:1009A00060E086E00E94870061E085E00E948700A9
:1009B00061E08BE00E9487000F5F1F4F10930101E1
:1009C00000930001F0927C0080917A008064809313
:1009D0007A0080917A0086FDFCCFA0917800B091DA
:1009E00079002FEC37E00E940E06A30192010E94CD
:1009F000BE052F5F3F4F4F4F5F4F30930301209352
:100A000002016091000170910101072E000C880B1A
:100A1000990B97FF7EC00E94870286E191E00E94B9
:100A200036026091020170910301072E000C880BC1
:100A3000990B97FF72C00E94870289E191E00E94A2
:100A40003602C114D10409F4FDCE0E94930188231B
:100A500009F4F8CE0E940000F5CE60E083E00E9429
:100A6000870060E08AE00E94870060E08BE00E94DF
:100A7000870060E086E00E94870061E089E00E94D4
:100A8000870061E085E096CF60E083E00E94870008
:100A900060E08AE00E94870060E085E00E948700B5
:100AA00060E08BE00E94870061E086E00E948700A2
:100AB00061E089E07FCF60E089E00E94870060E02C
:100AC00083E00E94870060E085E00E94870060E08C
:100AD0008BE00E94870061E08AE00E94870061E06D
:100AE00086E068CF60E089E00E94870060E085E0F2
:100AF0000E94870060E08BE00E94870060E086E053
:100B00000E94870061E083E00E94870061E08AE044
:100B100051CF4AE00E94430280CF4AE00E94430244
:100B20008CCFEBE2F1E01382128288EE93E0A0E03A
:100B3000B0E084839583A683B78388E091E09183B6
:100B4000808385EC90E09587848784EC90E097879C
:100B5000868780EC90E0918B808B81EC90E0938B8A
:100B6000828B82EC90E0958B848B86EC90E0978B67
:100B7000868B118E128E138E148E0895052E97FB80
:100B80001EF400940E94D50557FD07D00E94DD0594
:100B900007FC03D04EF40C94D50550954095309544
:100BA00021953F4F4F4F5F4F0895909580957095D9
:100BB00061957F4F8F4F9F4F0895A1E21A2EAA1B78
:100BC000BB1BFD010DC0AA1FBB1FEE1FFF1FA217FD
:100BD000B307E407F50720F0A21BB30BE40BF50BFA
:100BE000661F771F881F991F1A9469F76095709583
:100BF000809590959B01AC01BD01CF010895A29F06
:100C0000B001B39FC001A39F700D811D1124911DE0
:100C1000B29F700D811D1124911D08950E94FF0542
:100C2000B7FF0895821B930B0895EE0FFF1F0590E9
:0A0C3000F491E02D0994F894FFCF31
:100C3A000100640000000000C901290156011602E2
:0C0C4A008701650179012020000D0A00DF
:00000001FF
